:020000040000FA
:060000000A128A110C280F
:10000800FE00030EF1000A08F2000A128A111528F0
:100018000A128A110F28F601F70183010A128A11C0
:100028003529831203138C1D1A281B286F281412D4
:10003800141B1F2820282428941F232824282B2811
:100048001308F0007008F60014139413141683169E
:100058000313941A302831284C28141934283528C9
:100068004C28831203131308F0007008F6008C1153
:10007800141683160313141C422843283D288312A0
:100088000313130888005330F000F00B49286C283C
:10009800941A4F2850286C28141D532854286C286B
:1000A800831203131308F0007008F6008316031375
:1000B8001410831203130608930014165330F0002B
:1000C800F00B64288316031314186B286C28662811
:1000D800831203138C1172088A00710E8300FE0EBE
:1000E8007E0E0900F500AE28831603130F128F1237
:1000F8000F13D028831603130F168F120F13D0284F
:10010800831603130F128F160F13D02883160313A9
:100118000F168F160F13D028831603130F128F1282
:100128000F17D028831603130F168F120F17D02816
:10013800831603130F128F160F17D0288316031375
:100148000F168F160F17D028831603130F128F164A
:100158000F17D0287508F300F4017408003A031942
:10016800B628A8287308003A03197828013A031911
:100178007E28033A03198428013A03198A28073A82
:1001880003199028013A03199628033A03199C2861
:10019800013A0319A228A8280F1408008312031390
:1001A8001F139F171F14831603139F131F129F12E9
:1001B800C730F300DF28F30BDE28E228E328831298
:1001C80003131F119F111F129F12C730F300F30B67
:1001D800EB28EE28831203131F140C139F149F1887
:1001E800F628F728F3281E08F3007308F7007708A5
:1001F8008600DC2808000130831603138500860179
:100208001830870088018901013083160317880098
:1002180089018312031386018701880189018501F9
:1002280020300A128A111B210A128A110800F300D1
:100238007308831603139300363083120313940054
:100248008030831603139400013091008715071638
:100258008B170B17831203138C11831603138C153A
:1002680008000A128A11FF200A128A1106300A129F
:100278008A1176200A128A110A128A11D2200A12C9
:0A0288008A1140290A128A110C287D
:04400E00D4E0FFFFFC
:00000001FF
