:020000040000FA
:060000000A128A110C280F
:10000800FE00030EF1000A08F2000A128A111728EE
:100018000A128A110F28F701F801F901FA01830180
:100028000A128A11D428831203138C1D1C281D2838
:1000380071281412141B212822282628941F2528E9
:1000480026282D281308F0007008FA0014139413BA
:10005800141683160313941A322833284E281419B9
:10006800362837284E28831203131308F000700827
:10007800FA008C11141683160313141C44284528FF
:100088003F2883120313130888005330F000F00B45
:100098004B286E28941A512852286E28141D55286A
:1000A80056286E28831203131308F0007008FA000C
:1000B80083160313141083120313060893001416EF
:1000C8005330F000F00B66288316031314186D28BC
:1000D8006E286828831203138C1172088A00710E27
:1000E8008300FE0E7E0E0900F500B0288316031368
:1000F8000F128F120F13D228831603130F168F12A5
:100108000F13D228831603130F128F160F13D2283A
:10011800831603130F168F160F13D2288316031393
:100128000F128F120F17D228831603130F168F1270
:100138000F17D228831603130F128F160F17D22802
:10014800831603130F168F160F17D228831603135F
:100158000F128F160F17D2287508F300F4017408D0
:10016800003A0319B828AA287308003A03197A280C
:10017800013A03198028033A03198628013A03191A
:100188008C28073A03199228013A03199828033A48
:1001980003199E28013A0319A428AA280F14080055
:1001A8000A128A1118210A128A1106300A128A11B3
:1001B80078200A128A1183120313051CE428E52803
:1001C800E728F901F90A0518EA28EB28FB2879033A
:1001D800031DEF28F028FB280F3077020318F528B5
:1001E800F628FB280130F6007608F707F901851D87
:1001F800FE28FF280129F801F80A8519042905298C
:1002080012297803031D09290A29122977080319D5
:100218000E290F2912290130F702F8017708860004
:10022800DF280A128A110C28093083160313850067
:100238008601183087008801890183160317880111
:1002480089018312031386018701880189018501C9
:1002580030300A128A1133210A128A110800F30079
:100268007308831603139300363083120313940024
:100278008030831603139400013091008715071608
:100288008B170B17831203138C11831603138C150A
:0202980008005C
:04400E00D4E0FFFFFC
:00000001FF
