:020000040000FA
:060000000A128A110C280F
:10000800FE00030EF1000A08F2000A128A117F2886
:100018000A128A110F28F701F801F901FA01830180
:100028000A128A1117280A128A113C210A128A1107
:1000380006300A128A11E0200A128A118312031369
:10004800051C272828282A28F901F90A05182D2827
:100058002E283E287903031D322833283E280F30E6
:1000680077020318382839283E280130F600760828
:10007800F707F9010F307706031D432844284F2856
:100088007903031D482849284F2805184C284D286E
:100098004F28F701F901851D522853285528F801E2
:1000A800F80A85195828592866287803031D5D28F9
:1000B8005E286628770803196228632866280130B5
:1000C800F702F8017708031D6A286B287928780356
:1000D800031D6F28702879288519732874287928B2
:1000E8000F30F6007608F700F80177088600222816
:1000F8000A128A110C28831203138C1D8428852860
:10010800D9281412141B89288A288E28941F8D2810
:100118008E2895281308F0007008FA001413941319
:10012800141683160313941A9A289B28B6281419B0
:100138009E289F28B628831203131308F00070081E
:10014800FA008C11141683160313141CAC28AD285E
:10015800A72883120313130888005330F000F00B0C
:10016800B328D628941AB928BA28D628141DBD2829
:10017800BE28D628831203131308F0007008FA006B
:10018800831603131410831203130608930014161E
:100198005330F000F00BCE28831603131418D5281B
:1001A800D628D028831203138C1172088A00710E86
:1001B8008300FE0E7E0E0900F5001829831603132E
:1001C8000F128F120F133A29831603130F168F126B
:1001D8000F133A29831603130F128F160F133A2998
:1001E800831603130F168F160F133A29831603135A
:1001F8000F128F120F173A29831603130F168F1237
:100208000F173A29831603130F128F160F173A295F
:10021800831603130F168F160F173A298316031325
:100228000F128F160F173A297508F300F401740896
:10023800003A0319202912297308003A0319E22801
:10024800013A0319E828033A0319EE28013A031979
:10025800F428073A0319FA28013A03190029033A3E
:1002680003190629013A03190C2912290F14080049
:10027800093083160313850086011830870088012A
:1002880089018316031788018901831203138601E4
:10029800870188018901850130300A128A115721A6
:1002A8000A128A110800F3007308831603139300D7
:1002B800363083120313940080308316031394009E
:1002C80001309100871507168B170B17831203133C
:0A02D8008C11831603138C15080027
:04400E00D4E0FFFFFC
:00000001FF
