:020000040000FA
:060000000A128A11EB2F29
:10001200F2004128831603130F128F120F13632865
:10002200831603130F168F120F13632883160313FD
:100032000F128F160F136328831603130F168F16D2
:100042000F136328831603130F128F120F176328DF
:10005200831603130F168F120F17632883160313C9
:100062000F128F160F176328831603130F168F169E
:100072000F176328831603130F128F160F176328A7
:100082007208F000F1017108003A031949283B286F
:100092007008003A03190B28013A03191128033A90
:1000A20003191728013A03191D28073A03192328AF
:1000B200013A03192928033A03192F28013A03198F
:1000C20035283B280F140800F800780803196A281D
:1000D2006B287F28F31F6E286F287F287009FA008B
:1000E2007109FB007209FC007309FD00FA0A031989
:1000F200FB0A0319FC0A0319FD0A87287308FD008D
:100102007208FC007108FB007008FA0073087204A0
:1001120071047004031D8E288F2898280030F30084
:100122000030F2000030F1000030F0001E2996305D
:10013200F4007408F900AA280130F4007408F907E1
:1001420001300310FD0CFC0CFB0CFA0CFF3E031DEE
:10015200A228FE307D05031DAF28B0289D28CC289B
:100162000130F4007408F9070130FA07003003186F
:100172000130FB07003003180130FC070030031880
:100182000130FD0701300310FD0CFC0CFB0CFA0CD6
:10019200FF3E031DC428FF307D05031DD128D22850
:1001A200B128DE280130F9020130F4000310FA0D03
:1001B200FB0DFC0DFD0DF40BD728FC1BE128E228FA
:1001C200E828023079020318E728E828D3287918AA
:1001D200EB28EC28F428FF30FA05FF30FB057F30CE
:1001E200FC05FF30FD050310F90C7908F400F50158
:1001F200F601F70118300310F40DF50DF60DF70DA9
:10020200FF3E031DFC287408FA047508FB047608F7
:10021200FC047708FD04780803191029112916290E
:10022200F31F142915291629FD177D08F3007C08F0
:10023200F2007B08F1007A08F00008008312031331
:1002420023088039A8002808AD002308A800280741
:10025200A9002908B300A21F2F29302931293314FC
:1002620033080319352936294529330A031D3A294A
:100272003B2943290030A3000030A2000030A10036
:100282000030A000A2174D290030A3000030A200C8
:100292000030A1000030A00027088039A8002808FB
:1002A200AD062708A8002807A9002908B200A61F42
:1002B2005B295C295D2932143208031961296229FC
:1002C2007129320A031D662967296F290030A700A8
:1002D2000030A6000030A5000030A400A61779293E
:1002E2000030A7000030A6000030A5000030A400B6
:1002F200320803197D297E2983293308031D8229A7
:1003020083298C290030A3000030A2000030A10014
:100312000030A0007F2C2008A8002808F000260842
:100322000A128A15B0220A128A1171088312031363
:10033200B9007008B8003808A800A901AA01AB01E9
:100342002B08B1002A08B0002908AF002808AE0027
:100352003908A800A901AA01AB012B08B7002A0895
:10036200B6002908B5002808B4002108A80028080A
:10037200F00025080A128A15B0220A128A117108A1
:1003820083120313B9007008B8003808A800A90145
:10039200AA01AB012808AE07290803110318013E80
:1003A2000319D429AF072A0803110318013E0319C0
:1003B200DB29B0072B0803110318013E0319E229B8
:1003C200B1073908A800A901AA01AB012808B4079E
:1003D200290803110318013E0319F029B5072A0859
:1003E20003110318013E0319F729B6072B0803115D
:1003F2000318013E0319FE29B7072208A80028089E
:10040200F00024080A128A15B0220A128A11710811
:1004120083120313B9007008B8003808A800A901B4
:10042200AA01AB012808AE07290803110318013EEF
:1004320003191C2AAF072A0803110318013E0319E6
:10044200232AB0072B0803110318013E03192A2A95
:10045200B1073908A800A901AA01AB012808B4070D
:10046200290803110318013E0319382AB5072A087F
:1004720003110318013E03193F2AB6072B08031183
:100482000318013E0319462AB7070830A8000310D3
:10049200AE0DAF0DB00DB10DA80B482A2108A80072
:1004A2002808F00024080A128A15B0220A128A11BA
:1004B200710883120313B9007008B8003808A80045
:1004C2003908A900AA01AB012808AE0729080311BF
:1004D2000318013E03196E2AAF072A0803110318F5
:1004E200013E0319752AB0072B0803110318013EB8
:1004F20003197C2AB1072008A8002808F000250863
:100502000A128A15B0220A128A1171088312031381
:10051200B9007008B8003808A8003908A900AA0173
:10052200AB012808AE07290803110318013E03197D
:100532009B2AAF072A0803110318013E0319A22AB6
:10054200B0072B0803110318013E0319A92AB107AA
:100552000830A8000310AE0DAF0DB00DB10DA80B01
:10056200AB2A2008A8002808F00024080A128A15DD
:10057200B0220A128A11710883120313B90070089B
:10058200B8003808A8003908A900AA01AB01280858
:10059200AE07290803110318013E0319D12AAF0738
:1005A2002A0803110318013E0319D82AB0072B08A1
:1005B20003110318013E0319DF2AB1072108A8001D
:1005C2002808F00026080A128A15B0220A128A1197
:1005D200710883120313B9007008B8003808A80024
:1005E2003908A900AA01AB012808B4072908031198
:1005F2000318013E0319FE2AB5072A08031103183E
:10060200013E0319052BB6072B0803110318013EFF
:1006120003190C2BB7072208A8002808F0002508A8
:100622000A128A15B0220A128A1171088312031360
:10063200B9007008B8003808A8003908A900AA0152
:10064200AB012808B407290803110318013E031956
:100652002B2BB5072A0803110318013E0319322B6D
:10066200B6072B0803110318013E0319392BB707EC
:100672002208A8002808F00026080A128A15B022CB
:100682000A128A11710883120313B9007008B800A4
:100692003808A8003908A900AA01AB0108300310E4
:1006A200A80DA90DAA0DAB0DFF3E031D502B280866
:1006B200B407290803110318013E0319612BB5077A
:1006C2002A0803110318013E0319682BB6072B08E9
:1006D20003110318013E03196F2BB7072E08A80058
:1006E2002F08A9003008AA003108AB001830031007
:1006F200AB0CAA0CA90CA80CFF3E031D782B2808F2
:10070200B407290803110318013E0319892BB50701
:100712002A0803110318013E0319902BB6072B0870
:1007220003110318013E0319972BB7070830A800DD
:100732000310AE0DAF0DB00DB10DA80B992B330800
:100742003207A800A901A90D2808823EB80029088D
:100752000318013EFF3EB900CB2B0130A800031065
:10076200B40DB50DB60DB70DA80BB02BB11FBA2B3A
:10077200BB2BBC2B34140130A8000310AE0DAF0DFF
:10078200B00DB10DA80BBE2BFF30B8070318B90A84
:10079200FF30B907B61FCE2BCF2BAE2BB201B11F44
:1007A200D32BD42BF02BFF302E05A800FF302F05C2
:1007B200A900FF303005AA007F303105AB002B08BD
:1007C2002A04290428040319E72BE82BEB2BB20196
:1007D200B20AF02B341CEE2BEF2BF02BE82B320855
:1007E2000319F42BF52B262C0130B4070030031823
:1007F2000130B507003003180130B6070030031886
:100802000130B707371C062C072C262C3408A80009
:100812003508A9003608AA003708AB000130AC0041
:100822002B0DAB0CAA0CA90CA80CAC0B112C2B0891
:10083200B7002A08B6002908B5002808B40001301C
:10084200B8070318B90A0030B9073908803AFF001F
:1008520080307F02031D2F2CFF303802031C322C04
:10086200332C3E2C7F3083120313B7008030B60046
:100872000030B5000030B400732C83120313390822
:10088200803AFF0080307F02031D492C013038027C
:1008920003184C2C4D2C592C003083120313B70033
:1008A2000030B6000030B5000030B400AD01732C4A
:1008B200831203133808A8002808B300FF30B405D8
:1008C200FF30B5057F30B6050030B705331C6A2C02
:1008D2006B2C6C2CB6173308A8000310280CA90047
:1008E2002908B7002D08A8002808B7043708A30074
:1008F2003608A2003508A1003408A00008000A1238
:100902008A1507220A128A1106300A128A11092050
:100912000A128A110A128A1524220A128A11013035
:10092200F3008030F4000A128A158A220A128A1110
:100932000A128A15AB210A128A112130F000003006
:10094200F1000A128A15BD210A128A110030F00044
:10095200F1000A128A1529230A128A1170088312D9
:100962000313D4005408EF000A128A15B4210A12A4
:100972008A11023083120313D6000430D500B93035
:10098200D400D40BC22CD50BC22CD60BC22CC92C32
:10099200433083120313BD007F30BC000030BB0024
:1009A2000030BA004030A300A030A2000030A10005
:1009B2000030A0006F08D400D501D601D701570836
:1009C200F3005608F2005508F1005408F000013017
:1009D2000A128A1165200A128A11730883120313FC
:1009E200A7007208A6007108A5007008A4000A12E8
:1009F2008A111F210A128A11831203132308C100CC
:100A02002208C0002108BF002008BE000A128A1571
:100A120023260A128A11831203133D08DB003C08C5
:100A2200DA003B08D9003A08D8005B08A7005A0848
:100A3200A6005908A5005808A4004230A300C830F7
:100A4200A2000030A1000030A0000A128A111F216A
:100A52000A128A11831203132308BD002208BC0064
:100A62002108BB002008BA000A128A15A7250A121B
:100A72008A11831203133B08ED003A08EC000A3096
:100A8200F9000030FA006D08FC006C08FB000A1245
:100A92008A150D240A128A117A0883120313EB00B5
:100AA2007908EA006B08A5006A08A4000A30A600CB
:100AB2000030A700D1300A128A1564220A128A1164
:100AC2000A30F9000030FA000A30F0000030F1007C
:100AD200831203136D08F3006C08F2000A128A15E0
:100AE200CE240A128A117108FC007008FB000A1257
:100AF2008A150D240A128A117A0883120313E90057
:100B02007908E8006908A5006808A4000A30A60070
:100B12000030A700CC300A128A1564220A128A1108
:100B22000A30F9000030FA006430F0000030F100C1
:100B3200831203136D08F3006C08F2000A128A157F
:100B4200CE240A128A117108FC007008FB000A12F6
:100B52008A150D240A128A117A0883120313E700F8
:100B62007908E6006708A5006608A4000A30A60016
:100B72000030A700C7300A128A1564220A128A11AD
:100B8200D13083120313D4005408F000CC300A127F
:100B92008A1500230A128A11113083120313D4001A
:100BA2005408F000C2300A128A1543220A128A112E
:100BB200CC3083120313D4005408F000C2300A125E
:100BC2008A1500230A128A11C23083120313D40039
:100BD2005408F000C7300A128A1500230A128A113B
:100BE200C0300A128A15E3210A128A11C730F300B3
:100BF2000030F4000A128A158A220A128A1115306C
:100C0200F3008030F4000A128A158A220A128A112D
:100C1200BD30F3000030F4000A128A158A220A124B
:100C22008A111330F3008030F4000A128A158A22E6
:100C32000A128A11AE30F3000030F4000A128A154B
:100C42008A220A128A110A128A15AB210A128A1101
:100C52003130F0000030F1000A128A15BD210A126B
:100C62008A110030F000F1000A128A1529230A12B3
:100C72008A11710883120313E5007008E4000A1256
:100C82008A15B4210A128A11023083120313D60084
:100C92000430D500B930D400D40B4D2ED50B4D2ED7
:100CA200D60B4D2E542E831203136508A50064083B
:100CB200A4000A30A6000030A700BD300A128A152F
:100CC20064220A128A11023083120313D6000430FE
:100CD200D500B930D400D40B6C2ED50B6C2ED60BAC
:100CE2006C2E732E0A128A15AB210A128A11413018
:100CF200F0000030F1000A128A15BD210A128A1191
:100D02000030F000F1000A128A1529230A128A1112
:100D1200700883120313D4005408EE000A128A15D5
:100D2200B4210A128A11023083120313D60004304E
:100D3200D500B930D400D40B9C2ED50B9C2ED60BEB
:100D42009C2EA32E433083120313BD007F30BC00C0
:100D52000030BB000030BA004030A300A030A20037
:100D62000030A1000030A0006E08D400D501D601E9
:100D7200D7015708F3005608F2005508F10054084D
:100D8200F00001300A128A1165200A128A117308D2
:100D920083120313A7007208A6007108A500700849
:100DA200A4000A128A111F210A128A118312031344
:100DB2002308C1002208C0002108BF002008BE008D
:100DC2000A128A1523260A128A11831203133D0876
:100DD20083160313A800831203133C08831603131C
:100DE200A700831203133B0883160313A600831282
:100DF20003133A0883160313A5002808831203136A
:100E0200A70083160313270883120313A600831671
:100E12000313260883120313A50083160313250860
:100E220083120313A4004230A300C830A200003092
:100E3200A1000030A0000A128A111F210A128A1191
:100E4200831203132308BD002208BC002108BB0043
:100E52002008BA000A128A15A7250A128A118312DB
:100E620003133B08E3003A08E2000A30F9000030BD
:100E7200FA006308FC006208FB000A128A150D24BE
:100E82000A128A117A0883120313E1007908E0003A
:100E92006108A5006008A4000A30A6000030A7007F
:100EA200B8300A128A1564220A128A110A30F9002D
:100EB2000030FA000A30F0000030F1008312031310
:100EC2006308F3006208F2000A128A15CE240A129D
:100ED2008A117108FC007008FB000A128A150D24A1
:100EE2000A128A117A0883120313DF007908DE00DE
:100EF2005F08A5005E08A4000A30A6000030A70023
:100F0200B3300A128A1564220A128A110A30F900D1
:100F12000030FA006430F0000030F1008312031355
:100F22006308F3006208F2000A128A15CE240A123C
:100F32008A117108FC007008FB000A128A150D2440
:100F42000A128A117A0883120313DD007908DC0081
:100F52005D08A5005C08A4000A30A6000030A700C6
:100F6200AE300A128A1564220A128A11B83083122C
:100F72000313D4005408F000B3300A128A15002378
:100F82000A128A11113083120313D4005408F0009C
:100F9200A9300A128A1543220A128A11B330831227
:100FA2000313D4005408F000A9300A128A15002352
:100FB2000A128A11A93083120313D4005408F000D4
:100FC200AE300A128A1500230A128A11992C0A12CB
:100FD2008A11002883135830840070300A128A154F
:100FE200A3210A128A11A0308400D6300A128A156F
:100FF200A3210A128A1183010A128A11802CFF1B73
:101002000A2883137F1883170008840A0319FF0A2A
:10101200080008308A000408840A82070034413438
:10102200443443342034203443344F344E34543423
:101032002E342034203446344F3454344F342E343A
:0A1042000034203420342034003440
:1013460064008001840A0406031900340406A429F3
:101356000A128A15C7210A128A1583160313111455
:1013660008000A128A15C7210A128A158316031362
:10137600111508000A128A15C7210A128A15700863
:101386008312031393000800831603131419CC2940
:10139600CD29C72911081F39031DD229D329C729E9
:1013A60008008312031388152730F100F530F0008A
:1013B600F00BDB29F10BDB298312031388110800DC
:1013C600F2000A128A15D7220A128A1572088312A7
:1013D60003138600881308110A128A15D4210A12EB
:1013E6008A150800F2000A128A15D7220A128A15EF
:1013F6007208831203138600881708110A128A15C9
:10140600D4210A128A150800831603138501860162
:10141600183087008801890183120313850186012C
:101426008701880189010030A3000130A2008630BF
:10143600A100A030A0000A128A1557230A128A15A5
:10144600080038300A128A15E3210A128A150C3070
:101456000A128A15E3210A128A1501300A128A1520
:10146600E3210A128A1506300A128A15E3210A12A6
:101476008A1580300A128A15E3210A128A15080095
:10148600F3007308F1007108F200512A0130F100EF
:101496007108F2070130F1007108F0077008840046
:1014A6000A128A150A200A128A15F10072088400A7
:1014B6007108831380000008031D622A632A492AE3
:1014C600080083120313A900A51F6A2A6B2A7B2A28
:1014D6002D30FD00290884007D088313800001302B
:1014E600FD007D08A907A409A509A40A0319A50AF0
:1014F6002508F9002408F8002708FB002608FA004A
:1015060029080A128A1535250A128A1508009F2A03
:101516007408FF00730884000A128A1500200A1254
:101526008A150A128A15F5210A128A150130F3075F
:101536000318F40A0030F407740883120313FF003B
:10154600730884000A128A1500200A128A15003AC6
:10155600031DAE2AAF2A8B2A0800F800F401F50114
:101566007008F200F3017208F6007308F700781CA1
:10157600BD2ABE2AC42A7608F4070318F50A770896
:10158600F50701300310F60DF70DFF3E031DC52AC2
:101596000310F80C7808031DD12AD22ABA2A750836
:1015A600F1007408F0000800FF3083120313860070
:1015B6008030F000700886058813081588112730DA
:1015C600F100F530F000F00BE62AF10BE62A831263
:1015D6000313881580300606031DF22AF32AFF2A14
:1015E60088112730F100F530F000F00BF82AF10BE6
:1015F600F82A8312031388150800F3007308F10014
:101606007108F2000A2B0130F1007108F207720826
:10161600840083130008031D112B122B062B1B2B92
:101626000130F1007108F2070130F1007108F0078E
:10163600700884000008F1007208840071088000B8
:101646000008031D272B282B132B08000A128A15C6
:10165600C7210A128A158316031391150A128A15D1
:10166600C7210A128A15831203131308F200F30125
:101676007208F4007308F5000A128A15C7210A12C7
:101686008A1570037104031D492B4A2B4E2B8316B2
:1016960003139112512B8316031391161116750815
:1016A600F1007408F0000800283083120313940038
:1016B600831603139101831203132008A400210843
:1016C600A5002208A6002308A70002300310A40DD7
:1016D600A50DA60DA70DFF3E031D692B2708F300D8
:1016E6002608F2002508F1002408F0000030F70073
:1016F6003D30F6000930F5000030F4000A128A1574
:1017060068240A128A157008FF3E83160313930095
:101716009401871507160800700871040319942BA5
:10172600952BC42BF501F50AA32B01300310F00D00
:10173600F10DFF3E031D992B0130F4007408F507E7
:10174600F11FA62BA72B982B71087302031DAD2B37
:1017560070087202031CB02BB12BB72B7008F20273
:101766007108031CF303F30201300310F10CF00CB3
:10177600FF3E031DB82B0130F502031DC32BC42BFE
:10178600A72B7308F1007208F0000800F501F601B6
:10179600700871040319D02BD12B082CF701F70A16
:1017A600DF2B01300310F00DF10DFF3E031DD52B8D
:1017B6000130F4007408F707F11FE22BE32BD42B5A
:1017C60001300310F50DF60DFF3E031DE42B7108E5
:1017D6007302031DF02B70087202031CF32BF42B0B
:1017E600FB2B7008F2027108031CF303F302751455
:1017F60001300310F10CF00CFF3E031DFC2B0130F1
:10180600F702031D072C082CE32B7608F100750858
:10181600F000080083120313A101FC1F132C142CE3
:101826001B2CFB09FC09FB0A0319FC0AA101A10AEE
:10183600FA1F1E2C1F2C242CF909FA09F90A031980
:10184600FA0A79087A040319292C2A2C592CA001A2
:10185600A00A382C01300310F90DFA0DFF3E031DC6
:101866002E2C0130FD007D08A007FA1F3B2C3C2CD6
:101876002D2C7A087C02031D422C79087B02031C5E
:10188600452C462C4C2C7908FB027A08031CFC03D9
:10189600FC0201300310FA0CF90CFF3E031D4D2C1F
:1018A6000130A002031D582C592C3C2C2108031989
:1018B6005D2C5E2C632CFB09FC09FB0A0319FC0A50
:1018C6007C08FA007B08F90008000030FC000030B4
:1018D600FB000030FA000030F9007308720471044E
:1018E60070040319772C782CC52CFD01FD0A882C71
:1018F6000130F8000310F00DF10DF20DF30DF80BA9
:101906007D2C0130F8007808FD07F31F8B2C8C2CFA
:101916007B2C0130F8000310F90DFA0DFB0DFC0DC0
:10192600F80B8E2C73087702031DA32C720876021F
:10193600031DA32C71087502031DA32C70087402E5
:10194600031CA62CA72CB62C7008F4027108031CE5
:10195600710FF5027208031C720FF6027308031C5E
:10196600730FF702791401300310F30CF20CF10C2B
:10197600F00CFF3E031DB72C0130FD02031DC42CE5
:10198600C52C8C2C7C08F3007B08F2007A08F10049
:101996007908F0000800F601F11FD22CD32CDA2CBE
:1019A600F009F109F00A0319F10AF601F60AF31F24
:1019B600DD2CDE2CE72CF209F309F20A0319F30AEF
:1019C6000130F4007408F606F701F8017008710496
:1019D6000319EE2CEF2C262DF501F50AFD2C01300E
:1019E6000310F00DF10DFF3E031DF32C0130F40042
:1019F6007408F507F11F002D012DF22C013003109C
:101A0600F70DF80DFF3E031D022D71087302031D2D
:101A16000E2D70087202031C112D122D192D70083F
:101A2600F2027108031CF303F3027714013003106A
:101A3600F10CF00CFF3E031D1A2D0130F502031DBB
:101A4600252D262D012D760803192A2D2B2D302D17
:101A5600F709F809F70A0319F80A7808F100770870
:101A6600F000080083120313A3007908A100780888
:101A7600A0007B08F1007A08F0002108F300200896
:101A8600F2000A128A15C9230A128A1571088312EE
:101A96000313A1007008A0000130FC007C08A30716
:101AA60020082104031D582D592D3C2D23088400A0
:101AB600831380010130A3027B08F1007A08F0004D
:101AC6007908F3007808F2000A128A158F230A12A1
:101AD6008A157008FC007C0883120313A2007B0899
:101AE600F1007A08F0007908F3007808F2000A128B
:101AF6008A15C9230A128A157108F9007008F800B8
:101B06000A30831203132202031C8A2D8B2D8F2D7C
:101B16000730FC007C08A2073030FC007C08A207D6
:101B26002208FC00230884007C088313800001300F
:101B3600A30278087904031DA12DA22D5F2D013083
:101B4600FC007C08A30708000310831203133C0D56
:101B56003D0DBE003E08C4004408031DB32DB42D40
:101B6600BD2D0030BD000030BC000030BB00003091
:101B7600BA00222E3A08BE003B08BF003C08C0004F
:101B86003D08C1001F300310C10CC00CBF0CBE0CB9
:101B9600FF3E031DC62D3E08C2004208C300BC1707
:101BA600FF30BA05FF30BB05FF30BC050030BD0570
:101BB6009630C402C41FE02DE12DFB2D4408803A67
:101BC600973E0318E72DE82DE92DB42D01300310BB
:101BD600BD0CBC0CBB0CBA0CFF3E031DEA2D01303C
:101BE600BE003E08C407031DF92DFA2DE92D122E5D
:101BF60020304402031C002E012E0D2EB42D013080
:101C0600BE000310BA0DBB0DBC0DBD0DBE0B042EE0
:101C16000130C4024408031D112E122E022E430861
:101C26000319162E172E222EBA09BB09BC09BD09A7
:101C3600BA0A0319BB0A0319BC0A0319BD0A08002C
:101C46008312031341088039C2004208CB004108C1
:101C5600C2004207C3004308D200C01F332E342EF1
:101C6600352E521452080319392E3A2E4A2E520A8C
:101C7600031D3E2E3F2E472E0030C1000030C0000F
:101C86000030BF000030BE00C017C101522E003028
:101C9600C1000030C0000030BF000030BE003D086B
:101CA6008039C2004208CB063D08C2004207C30085
:101CB6004308D300BC1F602E612E622E53145308B6
:101CC6000319662E672E772E530A031D6B2E6C2E74
:101CD600742E0030BD000030BC000030BB00003068
:101CE600BA00BC17BD017F2E0030BD000030BC001D
:101CF6000030BB000030BA003D083C043B043A0407
:101D0600031D862E872EA02E0030C1000030C00095
:101D16000030BF000030BE008030C0047F30C104F8
:101D26004B08C2004208C1044108BD004008BC007F
:101D36003F08BB003E08BA00FF2F5208031DA42E21
:101D4600A52EAE2E0030BD000030BC000030BB001A
:101D56000030BA00FF2F5208C200C3014308C50075
:101D660053084202C400031CC50344087F3ECC004E
:101D760045080318013E003ECD004108CA00400850
:101D8600C9003F08C8003E08C7000030C100003047
:101D9600C0000030BF000030BE000030D10000306F
:101DA600D0000030CF000030CE00D301242F5308DE
:101DB6000319DE2EDF2EFF2E0130C2000310C70DE1
:101DC600C80DC90DCA0DC20BE12E0130C2000310A9
:101DD600BE0DBF0DC00DC10DC20BEA2ED11FF42ED4
:101DE600F52EF62E3E140130C2000310CE0DCF0D97
:101DF600D00DD10DC20BF82E3D084A02031D0D2F42
:101E06003C084902031D0D2F3B084802031D0D2FF8
:101E16003A084702031C102F112F202F51173A089A
:101E2600C7023B08031C3B0FC8023C08031C3C0FBF
:101E3600C9023D08031C3D0FCA020130C200420818
:101E4600D3071A305302031C292F2A2FDA2E4A08E9
:101E56004904480447040319312F322F512F4E14D9
:101E6600512F0130C2000310BE0DBF0DC00DC10DB4
:101E7600C20B362FD11F402F412F422F3E14013067
:101E8600C2000310CE0DCF0DD00DD10DC20B442FC5
:101E9600FF30CC070318CD0AFF30CD07C01F542FE3
:101EA600552F342FD301D11F592F5A2F762FFF309C
:101EB6004E05C200FF304F05C300FF305005C40079
:101EC6007F305105C5004508440443044204031904
:101ED6006D2F6E2F712FD301D30A762F3E1C742FD0
:101EE600752F762F6E2F530803197A2F7B2FAC2F61
:101EF6000130BE07003003180130BF070030031859
:101F06000130C007003003180130C107411C8C2F77
:101F16008D2FAC2F3E08C2003F08C3004008C40006
:101F26004108C5000130C600450DC50CC40CC30CE4
:101F3600C20CC60B972F4508C1004408C0004308D1
:101F4600BF004208BE000130CC070318CD0A00309E
:101F5600CD074D08803AFF0080307F02031DB52F64
:101F6600FF304C02031CB82FB92FC72FFF30831246
:101F76000313CC000030CD000030C1000030C0009B
:101F86000030BF000030BE00831203134D08803AB4
:101F9600FF0080307F02031DD22F01304C02031850
:101FA600D52FD62FE32F83120313CC01CD0100309A
:101FB600C1000030C0000030BF000030BE00CB01C1
:101FC600831203134C08C2004208D200521CEC2FA5
:101FD600ED2FEF2FC017F32F7F30C2004208C00548
:101FE6005208C2000310420CC3004308C1004B084C
:0A1FF600C2004208C104972E080043
:04400E00D4E0FFFFFC
:00000001FF
