:020000040000FA
:100000000A128A11EB2F64008001840A0406031986
:10001000003404060428F2000A128A1558240A1231
:100020008A117208831203138600881708110A12B6
:100030008A1567230A128A110800F8007808031944
:10004000222823283728F31F262827283728700935
:10005000FA007109FB007209FC007309FD00FA0A3D
:100060000319FB0A0319FC0A0319FD0A3F28730848
:10007000FD007208FC007108FB007008FA007308AC
:10008000720471047004031D46284728502800306C
:10009000F3000030F2000030F1000030F000D6280C
:1000A0009630F4007408F90062280130F4007408F6
:1000B000F90701300310FD0CFC0CFB0CFA0CFF3EA1
:1000C000031D5A28FE307D05031D67286828552822
:1000D00084280130F4007408F9070130FA07003071
:1000E00003180130FB07003003180130FC07003013
:1000F00003180130FD0701300310FD0CFC0CFB0C54
:10010000FA0CFF3E031D7C28FF307D05031D892866
:100110008A28692896280130F9020130F40003107A
:10012000FA0DFB0DFC0DFD0DF40B8F28FC1B99281F
:100130009A28A0280230790203189F28A0288B282B
:100140007918A328A428AC28FF30FA05FF30FB0556
:100150007F30FC05FF30FD050310F90C7908F40031
:10016000F501F601F70118300310F40DF50DF60D49
:10017000F70DFF3E031DB4287408FA047508FB044C
:100180007608FC047708FD0478080319C828C928F4
:10019000CE28F31FCC28CD28CE28FD177D08F300EC
:1001A0007C08F2007B08F1007A08F00008000A12CF
:1001B0008A1588230A128A1106300A128A15E9253F
:1001C0000A128A110A128A15A5230A128A1101300D
:1001D000F3008030F4000A128A150B240A128A11E7
:1001E0000A128A153E230A128A112130F0000030CB
:1001F000F1000A128A1550230A128A110030F00009
:10020000F1000A128A15AA240A128A1170088312B0
:100210000313D4005408E6000A128A1547230A1271
:100220008A11023083120313D6000430D500B9308E
:10023000D400D40B1929D50B1929D60B192920293B
:10024000433083120313BD007F30BC000030BB007D
:100250000030BA004030A300A030A2000030A1005E
:100260000030A0006608D400D501D601D701570898
:10027000F3005608F2005508F1005408F000013070
:100280000A128A111D200A128A117308831203139D
:10029000A7007208A6007108A5007008A4000A1241
:1002A0008A118A240A128A11831203132308C100B7
:1002B0002208C0002108BF002008BE000A128A11CF
:1002C000AD220A128A11831203133D08DB003C0899
:1002D000DA003B08D9003A08D8005B08A7005A08A2
:1002E000A6005908A5005808A4004230A300C83051
:1002F000A2000030A1000030A0000A128A118A2456
:100300000A128A11831203132308BD002208BC00BD
:100310002108BB002008BA000A128A1584270A1295
:100320008A11831203133B08E5003A08E4000A30FF
:10033000F9000030FA006508FC006408FB000A12AE
:100340008A158E250A128A117A0883120313E30094
:100350007908E2006308A5006208A4000A30A6003C
:100360000030A700AF300A128A15E5230A128A115D
:100370000A30F9000030FA000A30F0000030F100D5
:10038000831203136508F3006408F2000A128A1549
:10039000AB260A128A117108FC007008FB000A12D1
:1003A0008A158E250A128A117A0883120313E10036
:1003B0007908E0006108A5006008A4000A30A600E2
:1003C0000030A70067300A128A15E5230A128A1145
:1003D0000A30F9000030FA006430F0000030F1001B
:1003E000831203136508F3006408F2000A128A15E9
:1003F000AB260A128A117108FC007008FB000A1271
:100400008A158E250A128A117A0883120313DF00D7
:100410007908DE005F08A5005E08A4000A30A60087
:100420000030A700AA300A128A15E5230A128A11A1
:10043000AF3083120313D4005408F00067300A125F
:100440008A1581240A128A11113083120313D400F1
:100450005408F000A5300A128A15C4230A128A1122
:10046000673083120313D4005408F000A5300A1239
:100470008A1581240A128A11A53083120313D4002D
:100480005408F000AA300A128A1581240A128A112F
:10049000C0300A128A1576230A128A11AA30F30094
:1004A0000030F4000A128A150B240A128A11133044
:1004B000F3008030F4000A128A150B240A128A1104
:1004C000A030F3000030F4000A128A150B240A123F
:1004D0008A110A128A153E230A128A113130F0005D
:1004E0000030F1000A128A1550230A128A110030D6
:1004F000F000F1000A128A15AA240A128A11710862
:1005000083120313DD007008DC000A128A154723EA
:100510000A128A11023083120313D6000430D50068
:10052000B930D400D40B922AD50B922AD60B922A3A
:10053000992A831203135D08A5005C08A4000A3001
:10054000A6000030A700A0300A128A15E5230A127F
:100550008A11F0280A128A11002883120313410815
:100560008039C2004208CB004108C2004207C300E4
:100570004308D200C01FBD2ABE2ABF2A5214520807
:100580000319C32AC42AD42A520A031DC82AC92A15
:10059000D12A0030C1000030C0000030BF00003060
:1005A000BE00C017C101DC2A0030C1000030C0000D
:1005B0000030BF000030BE003D088039C200420854
:1005C000CB063D08C2004207C3004308D300BC1F4E
:1005D000EA2AEB2AEC2A531453080319F02AF12AC9
:1005E000012B530A031DF52AF62AFE2A0030BD000E
:1005F0000030BC000030BB000030BA00BC17BD01A9
:10060000092B0030BD000030BC000030BB000030C2
:10061000BA003D083C043B043A04031D102B112B87
:100620002A2B0030C1000030C0000030BF00003075
:10063000BE008030C0047F30C1044B08C2004208B5
:10064000C1044108BD004008BC003F08BB003E0893
:10065000BA00892C5208031D2E2B2F2B382B00306B
:10066000BD000030BC000030BB000030BA00892C57
:100670005208C200C3014308C50053084202C40027
:10068000031CC50344087F3ECC0045080318013E07
:10069000003ECD004108CA004008C9003F08C8001C
:1006A0003E08C7000030C1000030C0000030BF006D
:1006B0000030BE000030D1000030D0000030CF004C
:1006C0000030CE00D301AE2B53080319682B692BE1
:1006D000892B0130C2000310C70DC80DC90DCA0D0A
:1006E000C20B6B2B0130C2000310BE0DBF0DC00D3D
:1006F000C10DC20B742BD11F7E2B7F2B802B3E1480
:100700000130C2000310CE0DCF0DD00DD10DC20BA4
:10071000822B3D084A02031D972B3C084902031D0A
:10072000972B3B084802031D972B3A084702031CEE
:100730009A2B9B2BAA2B51173A08C7023B08031C84
:100740003B0FC8023C08031C3C0FC9023D08031CB8
:100750003D0FCA020130C2004208D3071A305302CB
:10076000031CB32BB42B642B4A08490448044704E8
:100770000319BB2BBC2BDB2B4E14DB2B0130C2002F
:100780000310BE0DBF0DC00DC10DC20BC02BD11F7C
:10079000CA2BCB2BCC2B3E140130C2000310CE0D44
:1007A000CF0DD00DD10DC20BCE2BFF30CC070318CF
:1007B000CD0AFF30CD07C01FDE2BDF2BBE2BD301B0
:1007C000D11FE32BE42B002CFF304E05C200FF307D
:1007D0004F05C300FF305005C4007F305105C500F0
:1007E00045084404430442040319F72BF82BFB2B60
:1007F000D301D30A002C3E1CFE2BFF2B002CF82B20
:1008000053080319042C052C362C0130BE07003088
:1008100003180130BF07003003180130C007003053
:1008200003180130C107411C162C172C362C3E082A
:10083000C2003F08C3004008C4004108C5000130A1
:10084000C600450DC50CC40CC30CC20CC60B212C34
:100850004508C1004408C0004308BF004208BE006C
:100860000130CC070318CD0A0030CD074D08803A7F
:10087000FF0080307F02031D3F2CFF304C02031C21
:10088000422C432C512CFF3083120313CC00003038
:10089000CD000030C1000030C0000030BF0000308B
:1008A000BE00831203134D08803AFF0080307F02A0
:1008B000031D5C2C01304C0203185F2C602C6D2C46
:1008C00083120313CC01CD010030C1000030C00001
:1008D0000030BF000030BE00CB01831203134C0870
:1008E000C2004208D200521C762C772C792CC017FB
:1008F0007D2C7F30C2004208C0055208C2000310A0
:10090000420CC3004308C1004B08C2004208C104A6
:10091000212B08008312031323088039A80028081C
:10092000AD002308A8002807A9002908B300A21FCA
:100930009A2C9B2C9C2C331433080319A02CA12C2B
:10094000B02C330A031DA52CA62CAE2C0030A3001E
:100950000030A2000030A1000030A000A217B82C87
:100960000030A3000030A2000030A1000030A00041
:1009700027088039A8002808AD062708A8002807FE
:10098000A9002908B200A61FC62CC72CC82C3214F7
:1009900032080319CC2CCD2CDC2C320A031DD12CAF
:1009A000D22CDA2C0030A7000030A6000030A500C1
:1009B0000030A400A617E42C0030A7000030A600E9
:1009C0000030A5000030A40032080319E82CE92CFF
:1009D000EE2C3308031DED2CEE2CF72C0030A30079
:1009E0000030A2000030A1000030A000EA2F200853
:1009F000A8002808F00026080A128A1531240A12D5
:100A00008A11710883120313B9007008B8003808FE
:100A1000A800A901AA01AB012B08B1002A08B00067
:100A20002908AF002808AE003908A800A901AA01CA
:100A3000AB012B08B7002A08B6002908B500280822
:100A4000B4002108A8002808F00025080A128A1519
:100A500031240A128A11710883120313B900700835
:100A6000B8003808A800A901AA01AB012808AE0700
:100A7000290803110318013E03193F2DAF072A0867
:100A800003110318013E0319462DB0072B0803116B
:100A90000318013E03194D2DB1073908A800A9011B
:100AA000AA01AB012808B407290803110318013E65
:100AB00003195B2DB5072A0803110318013E03191A
:100AC000622DB6072B0803110318013E0319692D87
:100AD000B7072208A8002808F00024080A128A157F
:100AE00031240A128A11710883120313B9007008A5
:100AF000B8003808A800A901AA01AB012808AE0770
:100B0000290803110318013E0319872DAF072A088E
:100B100003110318013E03198E2DB0072B08031192
:100B20000318013E0319952DB1073908A800A90142
:100B3000AA01AB012808B407290803110318013ED4
:100B40000319A32DB5072A0803110318013E031941
:100B5000AA2DB6072B0803110318013E0319B12D66
:100B6000B7070830A8000310AE0DAF0DB00DB10DE2
:100B7000A80BB32D2108A8002808F00024080A12A9
:100B80008A1531240A128A11710883120313B900DD
:100B90007008B8003808A8003908A900AA01AB01FC
:100BA0002808AE07290803110318013E0319D92D9F
:100BB000AF072A0803110318013E0319E02DB007FF
:100BC0002B0803110318013E0319E72DB107200874
:100BD000A8002808F00025080A128A1531240A12F4
:100BE0008A11710883120313B9007008B80038081D
:100BF000A8003908A900AA01AB012808AE072908F6
:100C000003110318013E0319062EAF072A0803112A
:100C10000318013E03190D2EB0072B08031103180A
:100C2000013E0319142EB1070830A8000310AE0DC1
:100C3000AF0DB00DB10DA80B162E2008A800280886
:100C4000F00024080A128A1531240A128A11710848
:100C500083120313B9007008B8003808A8003908D7
:100C6000A900AA01AB012808AE072908031103183F
:100C7000013E03193C2EAF072A0803110318013E59
:100C80000319432EB0072B0803110318013E031963
:100C90004A2EB1072108A8002808F00026080A12E9
:100CA0008A1531240A128A11710883120313B900BC
:100CB0007008B8003808A8003908A900AA01AB01DB
:100CC0002808B407290803110318013E0319692EE7
:100CD000B5072A0803110318013E0319702EB60741
:100CE0002B0803110318013E0319772EB7072208BA
:100CF000A8002808F00025080A128A1531240A12D3
:100D00008A11710883120313B9007008B8003808FB
:100D1000A8003908A900AA01AB012808B4072908CE
:100D200003110318013E0319962EB5072A08031173
:100D30000318013E03199D2EB6072B080311031853
:100D4000013E0319A42EB7072208A8002808F000C6
:100D500026080A128A1531240A128A117108831290
:100D60000313B9007008B8003808A8003908A900B2
:100D7000AA01AB0108300310A80DA90DAA0DAB0DF7
:100D8000FF3E031DBB2E2808B407290803110318D2
:100D9000013E0319CC2EB5072A0803110318013EA2
:100DA0000319D32EB6072B0803110318013E0319AC
:100DB000DA2EB7072E08A8002F08A9003008AA00CD
:100DC0003108AB0018300310AB0CAA0CA90CA80C0E
:100DD000FF3E031DE32E2808B4072908031103185A
:100DE000013E0319F42EB5072A0803110318013E2A
:100DF0000319FB2EB6072B0803110318013E031934
:100E0000022FB7070830A8000310AE0DAF0DB00DCC
:100E1000B10DA80B042F33083207A800A901A90DB2
:100E20002808823EB80029080318013EFF3EB90099
:100E3000362F0130A8000310B40DB50DB60DB70D57
:100E4000A80B1B2FB11F252F262F272F341401305D
:100E5000A8000310AE0DAF0DB00DB10DA80B292FDA
:100E6000FF30B8070318B90AFF30B907B61F392F8A
:100E70003A2F192FB201B11F3E2F3F2F5B2FFF30AA
:100E80002E05A800FF302F05A900FF303005AA006D
:100E90007F303105AB002B082A04290428040319EC
:100EA000522F532F562FB201B20A5B2F341C592FE9
:100EB0005A2F5B2F532F320803195F2F602F912F6A
:100EC0000130B407003003180130B50700300318B3
:100ED0000130B607003003180130B707371C712FF7
:100EE000722F912F3408A8003508A9003608AA00EF
:100EF0003708AB000130AC002B0DAB0CAA0CA90CD1
:100F0000A80CAC0B7C2F2B08B7002A08B6002908C8
:100F1000B5002808B4000130B8070318B90A00303A
:100F2000B9073908803AFF0080307F02031D9A2FED
:100F3000FF303802031C9D2F9E2FA92F7F30831274
:100F40000313B7008030B6000030B5000030B400A5
:100F5000DE2F831203133908803AFF0080307F02AE
:100F6000031DB42F013038020318B72FB82FC42F38
:100F7000003083120313B7000030B6000030B50014
:100F80000030B400AD01DE2F831203133808A8002F
:100F90002808B300FF30B405FF30B5057F30B60533
:100FA0000030B705331CD52FD62FD72FB6173308EF
:100FB000A8000310280CA9002908B7002D08A800D4
:100FC0002808B7043708A3003608A2003508A10096
:100FD0003408A00008008313583084006C300A12D3
:100FE0008A1103200A128A11A0308400B4300A1238
:100FF0008A1103200A128A1183010A128A11D72842
:10100000FF1B0A2883137F1883170008840A03191B
:10101000FF0A080008308A000408840A82070034A6
:101020004134443443342034203443344F344E3438
:1010300054342E342034203446344F3454344F3416
:081040002E340034203400348A
:10167C000A128A155A230A128A1583160313111497
:10168C0008000A128A155A230A128A1583160313A4
:10169C00111508000A128A155A230A128A157008A5
:1016AC0083120313930008008316031314195F2B82
:1016BC00602B5A2B11081F39031D652B662B5A2BD7
:1016CC0008008312031388152730F100F530F00061
:1016DC00F00B6E2BF10B6E2B831203138811080089
:1016EC00F2000A128A1558240A128A1572088312FB
:1016FC0003138600881308110A128A1567230A122D
:10170C008A1508008316031385018601183087009B
:10171C0088018901831203138501860187018801E1
:10172C0089010030A3000130A2008630A100A03056
:10173C00A0000A128A15D8240A128A15080038301B
:10174C000A128A1576230A128A150C300A128A1587
:10175C0076230A128A1501300A128A1576230A1288
:10176C008A1506300A128A1576230A128A158030D9
:10177C000A128A1576230A128A150800F2007208DA
:10178C00F1007108F300D22B0130F1007108F3075E
:10179C000130F1007108F007700884000A128A15F4
:1017AC000A200A128A15F100730884007108831349
:1017BC0080000008031DE32BE42BCA2B08008312C6
:1017CC000313A900A51FEB2BEC2BFC2B2D30FD00DC
:1017DC00290884007D08831380000130FD007D08FA
:1017EC00A907A409A509A40A0319A50A2508F90043
:1017FC002408F8002708FB002608FA0029080A121A
:10180C008A1512270A128A150800202C7408FF006A
:10181C00730884000A128A1500200A128A150A120B
:10182C008A110B200A128A150130F3070318F40AE7
:10183C000030F407740883120313FF00730884004C
:10184C000A128A1500200A128A15003A031D2F2C41
:10185C00302C0C2C0800F800F401F5017008F20093
:10186C00F3017208F6007308F700781C3E2C3F2C2D
:10187C00452C7608F4070318F50A7708F5070130AC
:10188C000310F60DF70DFF3E031D462C0310F80C4C
:10189C007808031D522C532C3B2C7508F10074084E
:1018AC00F0000800FF308312031386008030F00034
:1018BC00700886058813081588112730F100F5305B
:1018CC00F000F00B672CF10B672C831203138815B7
:1018DC0080300606031D732C742C802C8811273045
:1018EC00F100F530F000F00B792CF10B792C831210
:1018FC00031388150800F2007208F1007108F30058
:10190C008B2C0130F1007108F307730884008313EA
:10191C000008031D922C932C872C9C2C0130F10079
:10192C007108F3070130F1007108F00770088400AA
:10193C000008F10073088400710880000008031D82
:10194C00A82CA92C942C08000A128A155A230A12C6
:10195C008A158316031391150A128A155A230A1233
:10196C008A15831203131308F200F3017208F400B2
:10197C007308F5000A128A155A230A128A15700385
:10198C007104031DCA2CCB2CCF2C8316031391127C
:10199C00D22C83160313911611167508F1007408D6
:1019AC00F0000800283083120313940083160313ED
:1019BC009101831203132008A4002108A50022081A
:1019CC00A6002308A70002300310A40DA50DA60D38
:1019DC00A70DFF3E031DEA2C2708F3002608F20092
:1019EC002508F1002408F0000030F7003D30F60027
:1019FC000930F5000030F4000A128A1545260A1247
:101A0C008A157008FF3E8316031393009401871503
:101A1C0007160800700871040319152D162D452D95
:101A2C00F501F50A242D01300310F00DF10DFF3EE8
:101A3C00031D1A2D0130F4007408F507F11F272D32
:101A4C00282D192D71087302031D2E2D700872029A
:101A5C00031C312D322D382D7008F2027108031C35
:101A6C00F303F30201300310F10CF00CFF3E031DE5
:101A7C00392D0130F502031D442D452D282D7308F9
:101A8C00F1007208F0000800F501F601700871040D
:101A9C000319512D522D892DF701F70A602D0130B4
:101AAC000310F00DF10DFF3E031D562D0130F40017
:101ABC007408F707F11F632D642D552D01300310A9
:101ACC00F50DF60DFF3E031D652D71087302031D08
:101ADC00712D70087202031C742D752D7C2D7008ED
:101AEC00F2027108031CF303F302751401300310A6
:101AFC00F10CF00CFF3E031D7D2D0130F702031D90
:101B0C00882D892D642D7608F1007508F0000800E9
:101B1C0083120313A101FC1F942D952D9C2DFB0901
:101B2C00FC09FB0A0319FC0AA101A10AFA1F9F2D4B
:101B3C00A02DA52DF909FA09F90A0319FA0A790851
:101B4C007A040319AA2DAB2DDA2DA001A00AB92D08
:101B5C0001300310F90DFA0DFF3E031DAF2D0130BE
:101B6C00FD007D08A007FA1FBC2DBD2DAE2D7A08F7
:101B7C007C02031DC32D79087B02031CC62DC72DC7
:101B8C00CD2D7908FB027A08031CFC03FC02013002
:101B9C000310FA0CF90CFF3E031DCE2D0130A002F0
:101BAC00031DD92DDA2DBD2D21080319DE2DDF2DB6
:101BBC00E42DFB09FC09FB0A0319FC0A7C08FA005A
:101BCC007B08F9000800F200212E831603130F1274
:101BDC008F120F13432E831603130F168F120F132E
:101BEC00432E831603130F128F160F13432E8316D7
:101BFC0003130F168F160F13432E831603130F1296
:101C0C008F120F17432E831603130F168F120F17F5
:101C1C00432E831603130F128F160F17432E8316A2
:101C2C0003130F168F160F17432E831603130F1261
:101C3C008F160F17432E7208F000F1017108003A4D
:101C4C000319292E1B2E7008003A0319EB2D013AAB
:101C5C000319F12D033A0319F72D013A0319FD2D40
:101C6C00073A0319032E013A0319092E033A0319F3
:101C7C000F2E013A0319152E1B2E0F1408000030DD
:101C8C00FC000030FB000030FA000030F900730853
:101C9C007204710470040319542E552EA22EFD01EA
:101CAC00FD0A652E0130F8000310F00DF10DF20D58
:101CBC00F30DF80B5A2E0130F8007808FD07F31FCE
:101CCC00682E692E582E0130F8000310F90DFA0D0C
:101CDC00FB0DFC0DF80B6B2E73087702031D802E89
:101CEC0072087602031D802E71087502031D802E6A
:101CFC0070087402031C832E842E932E7008F40239
:101D0C007108031C710FF5027208031C720FF602A6
:101D1C007308031C730FF702791401300310F30CD2
:101D2C00F20CF10CF00CFF3E031D942E0130FD0261
:101D3C00031DA12EA22E692E7C08F3007B08F20055
:101D4C007A08F1007908F0000800F601F11FAF2EB7
:101D5C00B02EB72EF009F109F00A0319F10AF601B9
:101D6C00F60AF31FBA2EBB2EC42EF209F309F20A9F
:101D7C000319F30A0130F4007408F606F701F801B0
:101D8C00700871040319CB2ECC2E032FF501F50A24
:101D9C00DA2E01300310F00DF10DFF3E031DD02E95
:101DAC000130F4007408F507F11FDD2EDE2ECF2E66
:101DBC0001300310F70DF80DFF3E031DDF2E7108E7
:101DCC007302031DEB2E70087202031CEE2EEF2E15
:101DDC00F62E7008F2027108031CF303F302771459
:101DEC0001300310F10CF00CFF3E031DF72E0130F7
:101DFC00F502031D022F032FDE2E76080319072F81
:101E0C00082F0D2FF709F809F70A0319F80A7808B3
:101E1C00F1007708F000080083120313A30079087F
:101E2C00A1007808A0007B08F1007A08F0002108D6
:101E3C00F3002008F2000A128A154A250A128A15A4
:101E4C00710883120313A1007008A0000130FC007C
:101E5C007C08A30720082104031D352F362F192FCA
:101E6C0023088400831380010130A3027B08F10056
:101E7C007A08F0007908F3007808F2000A128A1543
:101E8C0010250A128A157008FC007C0883120313B3
:101E9C00A2007B08F1007A08F0007908F3007808BA
:101EAC00F2000A128A154A250A128A157108F900DD
:101EBC007008F8000A30831203132202031C672FE8
:101ECC00682F6C2F0730FC007C08A2073030FC0018
:101EDC007C08A2072208FC00230884007C088313DA
:101EEC0080000130A30278087904031D7E2F7F2F18
:101EFC003C2F0130FC007C08A30708000310831260
:101F0C0003133C0D3D0DBE003E08C4004408031DE8
:101F1C00902F912F9A2F0030BD000030BC00003064
:101F2C00BB000030BA00FF2F3A08BE003B08BF00D0
:101F3C003C08C0003D08C1001F300310C10CC00C90
:101F4C00BF0CBE0CFF3E031DA32F3E08C20042086F
:101F5C00C300BC17FF30BA05FF30BB05FF30BC0512
:101F6C000030BD059630C402C41FBD2FBE2FD82F24
:101F7C004408803A973E0318C42FC52FC62F912FC3
:101F8C0001300310BD0CBC0CBB0CBA0CFF3E031D86
:101F9C00C72F0130BE003E08C407031DD62FD72F14
:101FAC00C62FEF2F20304402031CDD2FDE2FEA2F2B
:101FBC00912F0130BE000310BA0DBB0DBC0DBD0D31
:101FCC00BE0BE12F0130C4024408031DEE2FEF2F8E
:101FDC00DF2F43080319F32FF42FFF2FBA09BB0986
:101FEC00BC09BD09BA0A0319BB0A0319BC0A0319B7
:041FFC00BD0A080012
:04400E00D4E0FFFFFC
:00000001FF
