:020000040000FA
:060000000A128A11FC2F18
:100E9800003083120313A3000130A2008630A100A2
:100EA800A030A0000A128A115E270A128A110A12BB
:100EB8008A11002828308312031394008316031321
:100EC8009101831203132008A4002108A500220819
:100ED800A6002308A70002300310A40DA50DA60D37
:100EE800A70DFF3E031D702F2708F3002608F20008
:100EF8002508F1002408F0000030F7003D30F60026
:100F08000930F5000030F4000A128A1196270A12F7
:100F18008A117008FF3E8316031393009401871506
:100F2800071608000030FC000030FB000030FA0013
:100F38000030F90073087204710470040319A52FB6
:100F4800A62FF32FFD01FD0AB62F0130F80003107C
:100F5800F00DF10DF20DF30DF80BAB2F0130F80089
:100F68007808FD07F31FB92FBA2FA92F0130F80011
:100F78000310F90DFA0DFB0DFC0DF80BBC2F7308CF
:100F88007702031DD12F72087602031DD12F710835
:100F98007502031DD12F70087402031CD42FD52F9E
:100FA800E42F7008F4027108031C710FF50272082F
:100FB800031C720FF6027308031C730FF7027914EF
:100FC80001300310F30CF20CF10CF00CFF3E031D82
:100FD800E52F0130FD02031DF22FF32FBA2F7C08F5
:100FE800F3007B08F2007A08F1007908F0000800A5
:080FF80083010A128A114C2F3B
:04400E00D4E0FFFFFC
:00000001FF
